{
    "swapBlockBoundary" : {
        "_info" : {
            "comment" : "Testing SWAP across block boundaries",
            "filling-rpc-server" : "evm version 1.14.12-unstable-3e567b8b-20241023",
            "filling-tool-version" : "retesteth-0.3.2-legacy+commit.c1fb07e8.Linux.g++",
            "generatedTestHash" : "f1632fe78eac08aeb62f28d9ae13e4dc6aba52b6fd5872a5f872b8809682516f",
            "lllcversion" : "Version: 0.5.14-develop.2024.10.24+commit.b2b86751.Linux.g++",
            "solidity" : "Version: 0.8.21+commit.d9974bed.Linux.g++",
            "source" : "src/GeneralStateTestsFiller/stCompiler/swapBlockBoundaryFiller.yml",
            "sourceHash" : "cefff655dc7e270d71623b9f07bb3cd44c09b91b02e83b39e599b09b936e836f"
        },
        "env" : {
            "currentBaseFee" : "0x0a",
            "currentCoinbase" : "0x2adc25665018aa1fe0e6bc666dac8fc2697ff9ba",
            "currentDifficulty" : "0x020000",
            "currentExcessBlobGas" : "0x00",
            "currentGasLimit" : "0x05f5e100",
            "currentNumber" : "0x01",
            "currentRandom" : "0x0000000000000000000000000000000000000000000000000000000000020000",
            "currentTimestamp" : "0x03e8"
        },
        "post" : {
            "Cancun" : [
                {
                    "hash" : "0x8cbf291dceda7125a1ef679a6bfce782828ed0beaecf40912dc8ce726110cbc5",
                    "indexes" : {
                        "data" : 0,
                        "gas" : 0,
                        "value" : 0
                    },
                    "logs" : "0x1dcc4de8dec75d7aab85b567b6ccd41ad312451b948a7413f0a142fd40d49347",
                    "txbytes" : "0xf864808203e88404c4b40094095e7baea6a6c7c4c2dfeb977efac326af552d870181ff1ba091ab59d5cc3653f60a5ce48218b2b13b22fdb02bbf40a916cc5bf64f71af3a38a040521f3d5c0ef29511f7f61d832090c42dfdd4c1ca248c21ba67b126764257e3"
                }
            ]
        },
        "pre" : {
            "0x095e7baea6a6c7c4c2dfeb977efac326af552d87" : {
                "balance" : "0x0ba1a9ce0ba1a9ce",
                "code" : "0x5f60015b905500",
                "nonce" : "0x00",
                "storage" : {
                }
            },
            "0xa94f5374fce5edbc8e2a8697c15331677e6ebf0b" : {
                "balance" : "0x0ba1a9ce0ba1a9ce",
                "code" : "0x",
                "nonce" : "0x00",
                "storage" : {
                }
            }
        },
        "transaction" : {
            "data" : [
                "0xff"
            ],
            "gasLimit" : [
                "0x04c4b400"
            ],
            "gasPrice" : "0x03e8",
            "nonce" : "0x00",
            "secretKey" : "0x45a915e4d060149eb4365960e6a7a45f334393093061116b197e3240065ff2d8",
            "sender" : "0xa94f5374fce5edbc8e2a8697c15331677e6ebf0b",
            "to" : "0x095e7baea6a6c7c4c2dfeb977efac326af552d87",
            "value" : [
                "0x01"
            ]
        }
    }
}